{
  "address": "0xdef6eb4dE9E3d5E02dECdF0B89ca4079Be9e471e",
  "abi": [
    {
      "inputs": [
        {
          "internalType": "address",
          "name": "_vrfCoordinator",
          "type": "address"
        },
        {
          "internalType": "bytes32",
          "name": "_keyHash",
          "type": "bytes32"
        },
        {
          "internalType": "uint64",
          "name": "_subId",
          "type": "uint64"
        },
        {
          "internalType": "uint32",
          "name": "_callbackGasLimit",
          "type": "uint32"
        },
        {
          "internalType": "string[5]",
          "name": "_nftURIs",
          "type": "string[5]"
        },
        {
          "internalType": "uint256",
          "name": "_mintFee",
          "type": "uint256"
        }
      ],
      "stateMutability": "nonpayable",
      "type": "constructor"
    },
    {
      "inputs": [],
      "name": "NbaNft__RandomNumberOutOfRange",
      "type": "error"
    },
    {
      "inputs": [],
      "name": "NbaNft__TransferFailed",
      "type": "error"
    },
    {
      "inputs": [
        {
          "internalType": "address",
          "name": "have",
          "type": "address"
        },
        {
          "internalType": "address",
          "name": "want",
          "type": "address"
        }
      ],
      "name": "OnlyCoordinatorCanFulfill",
      "type": "error"
    },
    {
      "anonymous": false,
      "inputs": [
        {
          "indexed": true,
          "internalType": "address",
          "name": "owner",
          "type": "address"
        },
        {
          "indexed": true,
          "internalType": "address",
          "name": "approved",
          "type": "address"
        },
        {
          "indexed": true,
          "internalType": "uint256",
          "name": "tokenId",
          "type": "uint256"
        }
      ],
      "name": "Approval",
      "type": "event"
    },
    {
      "anonymous": false,
      "inputs": [
        {
          "indexed": true,
          "internalType": "address",
          "name": "owner",
          "type": "address"
        },
        {
          "indexed": true,
          "internalType": "address",
          "name": "operator",
          "type": "address"
        },
        {
          "indexed": false,
          "internalType": "bool",
          "name": "approved",
          "type": "bool"
        }
      ],
      "name": "ApprovalForAll",
      "type": "event"
    },
    {
      "anonymous": false,
      "inputs": [
        {
          "indexed": true,
          "internalType": "address",
          "name": "from",
          "type": "address"
        },
        {
          "indexed": true,
          "internalType": "address",
          "name": "to",
          "type": "address"
        },
        {
          "indexed": true,
          "internalType": "uint256",
          "name": "tokenId",
          "type": "uint256"
        }
      ],
      "name": "Transfer",
      "type": "event"
    },
    {
      "inputs": [
        {
          "internalType": "address",
          "name": "to",
          "type": "address"
        },
        {
          "internalType": "uint256",
          "name": "tokenId",
          "type": "uint256"
        }
      ],
      "name": "approve",
      "outputs": [],
      "stateMutability": "nonpayable",
      "type": "function"
    },
    {
      "inputs": [
        {
          "internalType": "address",
          "name": "owner",
          "type": "address"
        }
      ],
      "name": "balanceOf",
      "outputs": [
        {
          "internalType": "uint256",
          "name": "",
          "type": "uint256"
        }
      ],
      "stateMutability": "view",
      "type": "function"
    },
    {
      "inputs": [
        {
          "internalType": "uint256",
          "name": "tokenId",
          "type": "uint256"
        }
      ],
      "name": "getApproved",
      "outputs": [
        {
          "internalType": "address",
          "name": "",
          "type": "address"
        }
      ],
      "stateMutability": "view",
      "type": "function"
    },
    {
      "inputs": [
        {
          "internalType": "address",
          "name": "owner",
          "type": "address"
        },
        {
          "internalType": "address",
          "name": "operator",
          "type": "address"
        }
      ],
      "name": "isApprovedForAll",
      "outputs": [
        {
          "internalType": "bool",
          "name": "",
          "type": "bool"
        }
      ],
      "stateMutability": "view",
      "type": "function"
    },
    {
      "inputs": [],
      "name": "name",
      "outputs": [
        {
          "internalType": "string",
          "name": "",
          "type": "string"
        }
      ],
      "stateMutability": "view",
      "type": "function"
    },
    {
      "inputs": [
        {
          "internalType": "uint256",
          "name": "tokenId",
          "type": "uint256"
        }
      ],
      "name": "ownerOf",
      "outputs": [
        {
          "internalType": "address",
          "name": "",
          "type": "address"
        }
      ],
      "stateMutability": "view",
      "type": "function"
    },
    {
      "inputs": [
        {
          "internalType": "uint256",
          "name": "requestId",
          "type": "uint256"
        },
        {
          "internalType": "uint256[]",
          "name": "randomWords",
          "type": "uint256[]"
        }
      ],
      "name": "rawFulfillRandomWords",
      "outputs": [],
      "stateMutability": "nonpayable",
      "type": "function"
    },
    {
      "inputs": [
        {
          "internalType": "uint256",
          "name": "",
          "type": "uint256"
        }
      ],
      "name": "requestIdToOwner",
      "outputs": [
        {
          "internalType": "address",
          "name": "",
          "type": "address"
        }
      ],
      "stateMutability": "view",
      "type": "function"
    },
    {
      "inputs": [],
      "name": "requestNbaNft",
      "outputs": [
        {
          "internalType": "uint256",
          "name": "requestId",
          "type": "uint256"
        }
      ],
      "stateMutability": "payable",
      "type": "function"
    },
    {
      "inputs": [
        {
          "internalType": "address",
          "name": "from",
          "type": "address"
        },
        {
          "internalType": "address",
          "name": "to",
          "type": "address"
        },
        {
          "internalType": "uint256",
          "name": "tokenId",
          "type": "uint256"
        }
      ],
      "name": "safeTransferFrom",
      "outputs": [],
      "stateMutability": "nonpayable",
      "type": "function"
    },
    {
      "inputs": [
        {
          "internalType": "address",
          "name": "from",
          "type": "address"
        },
        {
          "internalType": "address",
          "name": "to",
          "type": "address"
        },
        {
          "internalType": "uint256",
          "name": "tokenId",
          "type": "uint256"
        },
        {
          "internalType": "bytes",
          "name": "data",
          "type": "bytes"
        }
      ],
      "name": "safeTransferFrom",
      "outputs": [],
      "stateMutability": "nonpayable",
      "type": "function"
    },
    {
      "inputs": [
        {
          "internalType": "address",
          "name": "operator",
          "type": "address"
        },
        {
          "internalType": "bool",
          "name": "approved",
          "type": "bool"
        }
      ],
      "name": "setApprovalForAll",
      "outputs": [],
      "stateMutability": "nonpayable",
      "type": "function"
    },
    {
      "inputs": [
        {
          "internalType": "bytes4",
          "name": "interfaceId",
          "type": "bytes4"
        }
      ],
      "name": "supportsInterface",
      "outputs": [
        {
          "internalType": "bool",
          "name": "",
          "type": "bool"
        }
      ],
      "stateMutability": "view",
      "type": "function"
    },
    {
      "inputs": [],
      "name": "symbol",
      "outputs": [
        {
          "internalType": "string",
          "name": "",
          "type": "string"
        }
      ],
      "stateMutability": "view",
      "type": "function"
    },
    {
      "inputs": [
        {
          "internalType": "uint256",
          "name": "tokenId",
          "type": "uint256"
        }
      ],
      "name": "tokenURI",
      "outputs": [
        {
          "internalType": "string",
          "name": "",
          "type": "string"
        }
      ],
      "stateMutability": "view",
      "type": "function"
    },
    {
      "inputs": [
        {
          "internalType": "address",
          "name": "from",
          "type": "address"
        },
        {
          "internalType": "address",
          "name": "to",
          "type": "address"
        },
        {
          "internalType": "uint256",
          "name": "tokenId",
          "type": "uint256"
        }
      ],
      "name": "transferFrom",
      "outputs": [],
      "stateMutability": "nonpayable",
      "type": "function"
    },
    {
      "inputs": [],
      "name": "withdraw",
      "outputs": [],
      "stateMutability": "payable",
      "type": "function"
    }
  ],
  "transactionHash": "0x6755b4b298a47d5d6fc08955054e9d178446193c5f96cefc232a2e75a35b629e",
  "args": [
    "0x8103B0A8A00be2DDC778e6e7eaa21791Cd364625",
    "0x474e34a077df58807dbe9c96d3c009b23b3c6d0cce433e59bbf5b34f823bc56c",
    "8851",
    "2500000",
    [
      "ipfs://QmNZHh9EvTuttE4eNkcW2TH5Zce4op2dGw9UexefxKJDiJ",
      "ipfs://QmbxUvKdLqNDqBiuFpgDTsPw85n4pKC9wvyPZVNZnmFMtJ",
      "ipfs://QmQmjWMg1a9aRc95fvMzcY4NkG9c4xCNxhBtyX8WaWyK3b",
      "ipfs://QmPaatpyG199edVGzW399Wdd8yEtYyNKJUby4HyHnXqrGt",
      "ipfs://QmbTtnLM2EGfyXLtW3hidyopGFwvvazzhUuAXTQpyo3Rtj"
    ],
    "2000000000000000"
  ],
  "numDeployments": 1,
  "solcInputHash": "ffe8976fa02b22465bd96b03896fe29b",
  "bytecode": "0x6101406040523480156200001257600080fd5b5060405162003e4a38038062003e4a8339818101604052810190620000389190620006aa565b6040518060400160405280600681526020017f4e62614e465400000000000000000000000000000000000000000000000000008152506040518060400160405280600381526020017f4e42410000000000000000000000000000000000000000000000000000000000815250878073ffffffffffffffffffffffffffffffffffffffff1660808173ffffffffffffffffffffffffffffffffffffffff1681525050508160009081620000eb9190620009a6565b508060019081620000fd9190620009a6565b5050508573ffffffffffffffffffffffffffffffffffffffff1660a08173ffffffffffffffffffffffffffffffffffffffff16815250508460c081815250508367ffffffffffffffff1660e08167ffffffffffffffff16815250508263ffffffff166101008163ffffffff1681525050600060088190555081600990600562000188929190620001df565b5033600a60006101000a81548173ffffffffffffffffffffffffffffffffffffffff021916908373ffffffffffffffffffffffffffffffffffffffff16021790555080610120818152505050505050505062000a8d565b8280548282559060005260206000209081019282156200022c579160200282015b828111156200022b5782518290816200021a9190620009a6565b509160200191906001019062000200565b5b5090506200023b91906200023f565b5090565b5b8082111562000263576000818162000259919062000267565b5060010162000240565b5090565b50805462000275906200079f565b6000825580601f10620002895750620002aa565b601f016020900490600052602060002090810190620002a99190620002ad565b5b50565b5b80821115620002c8576000816000905550600101620002ae565b5090565b6000604051905090565b600080fd5b600080fd5b600073ffffffffffffffffffffffffffffffffffffffff82169050919050565b60006200030d82620002e0565b9050919050565b6200031f8162000300565b81146200032b57600080fd5b50565b6000815190506200033f8162000314565b92915050565b6000819050919050565b6200035a8162000345565b81146200036657600080fd5b50565b6000815190506200037a816200034f565b92915050565b600067ffffffffffffffff82169050919050565b6200039f8162000380565b8114620003ab57600080fd5b50565b600081519050620003bf8162000394565b92915050565b600063ffffffff82169050919050565b620003e081620003c5565b8114620003ec57600080fd5b50565b6000815190506200040081620003d5565b92915050565b600080fd5b6000601f19601f8301169050919050565b7f4e487b7100000000000000000000000000000000000000000000000000000000600052604160045260246000fd5b62000456826200040b565b810181811067ffffffffffffffff821117156200047857620004776200041c565b5b80604052505050565b60006200048d620002cc565b90506200049b82826200044b565b919050565b600067ffffffffffffffff821115620004be57620004bd6200041c565b5b602082029050919050565b600080fd5b600080fd5b600067ffffffffffffffff821115620004f157620004f06200041c565b5b620004fc826200040b565b9050602081019050919050565b60005b83811015620005295780820151818401526020810190506200050c565b60008484015250505050565b60006200054c6200054684620004d3565b62000481565b9050828152602081018484840111156200056b576200056a620004ce565b5b6200057884828562000509565b509392505050565b600082601f83011262000598576200059762000406565b5b8151620005aa84826020860162000535565b91505092915050565b6000620005ca620005c484620004a0565b62000481565b90508060208402830185811115620005e757620005e6620004c9565b5b835b818110156200063557805167ffffffffffffffff81111562000610576200060f62000406565b5b8086016200061f898262000580565b85526020850194505050602081019050620005e9565b5050509392505050565b600082601f83011262000657576200065662000406565b5b600562000666848285620005b3565b91505092915050565b6000819050919050565b62000684816200066f565b81146200069057600080fd5b50565b600081519050620006a48162000679565b92915050565b60008060008060008060c08789031215620006ca57620006c9620002d6565b5b6000620006da89828a016200032e565b9650506020620006ed89828a0162000369565b95505060406200070089828a01620003ae565b94505060606200071389828a01620003ef565b935050608087015167ffffffffffffffff811115620007375762000736620002db565b5b6200074589828a016200063f565b92505060a06200075889828a0162000693565b9150509295509295509295565b600081519050919050565b7f4e487b7100000000000000000000000000000000000000000000000000000000600052602260045260246000fd5b60006002820490506001821680620007b857607f821691505b602082108103620007ce57620007cd62000770565b5b50919050565b60008190508160005260206000209050919050565b60006020601f8301049050919050565b600082821b905092915050565b600060088302620008387fffffffffffffffffffffffffffffffffffffffffffffffffffffffffffffffff82620007f9565b620008448683620007f9565b95508019841693508086168417925050509392505050565b6000819050919050565b600062000887620008816200087b846200066f565b6200085c565b6200066f565b9050919050565b6000819050919050565b620008a38362000866565b620008bb620008b2826200088e565b84845462000806565b825550505050565b600090565b620008d2620008c3565b620008df81848462000898565b505050565b5b818110156200090757620008fb600082620008c8565b600181019050620008e5565b5050565b601f82111562000956576200092081620007d4565b6200092b84620007e9565b810160208510156200093b578190505b620009536200094a85620007e9565b830182620008e4565b50505b505050565b600082821c905092915050565b60006200097b600019846008026200095b565b1980831691505092915050565b600062000996838362000968565b9150826002028217905092915050565b620009b18262000765565b67ffffffffffffffff811115620009cd57620009cc6200041c565b5b620009d982546200079f565b620009e68282856200090b565b600060209050601f83116001811462000a1e576000841562000a09578287015190505b62000a15858262000988565b86555062000a85565b601f19841662000a2e86620007d4565b60005b8281101562000a585784890151825560018201915060208501945060208101905062000a31565b8683101562000a78578489015162000a74601f89168262000968565b8355505b6001600288020188555050505b505050505050565b60805160a05160c05160e051610100516101205161336662000ae46000396000610cb201526000610d5f01526000610d3c01526000610d1b01526000610cdf0152600081816106f5015261074901526133666000f3fe6080604052600436106100fe5760003560e01c80636352211e11610095578063b88d4fde11610064578063b88d4fde14610324578063c87b56dd1461034d578063e4f7d4311461038a578063e985e9c5146103a8578063f29177c3146103e5576100fe565b80636352211e1461025657806370a082311461029357806395d89b41146102d0578063a22cb465146102fb576100fe565b80631fe543e3116100d15780631fe543e3146101d157806323b872dd146101fa5780633ccfd60b1461022357806342842e0e1461022d576100fe565b806301ffc9a71461010357806306fdde0314610140578063081812fc1461016b578063095ea7b3146101a8575b600080fd5b34801561010f57600080fd5b5061012a60048036038101906101259190612023565b610422565b604051610137919061206b565b60405180910390f35b34801561014c57600080fd5b50610155610504565b6040516101629190612116565b60405180910390f35b34801561017757600080fd5b50610192600480360381019061018d919061216e565b610596565b60405161019f91906121dc565b60405180910390f35b3480156101b457600080fd5b506101cf60048036038101906101ca9190612223565b6105dc565b005b3480156101dd57600080fd5b506101f860048036038101906101f391906123ab565b6106f3565b005b34801561020657600080fd5b50610221600480360381019061021c9190612407565b6107b3565b005b61022b610813565b005b34801561023957600080fd5b50610254600480360381019061024f9190612407565b610935565b005b34801561026257600080fd5b5061027d6004803603810190610278919061216e565b610955565b60405161028a91906121dc565b60405180910390f35b34801561029f57600080fd5b506102ba60048036038101906102b5919061245a565b6109db565b6040516102c79190612496565b60405180910390f35b3480156102dc57600080fd5b506102e5610a92565b6040516102f29190612116565b60405180910390f35b34801561030757600080fd5b50610322600480360381019061031d91906124dd565b610b24565b005b34801561033057600080fd5b5061034b600480360381019061034691906125d2565b610b3a565b005b34801561035957600080fd5b50610374600480360381019061036f919061216e565b610b9c565b6040516103819190612116565b60405180910390f35b610392610cae565b60405161039f9190612496565b60405180910390f35b3480156103b457600080fd5b506103cf60048036038101906103ca9190612655565b610e3a565b6040516103dc919061206b565b60405180910390f35b3480156103f157600080fd5b5061040c6004803603810190610407919061216e565b610ece565b60405161041991906121dc565b60405180910390f35b60007f80ac58cd000000000000000000000000000000000000000000000000000000007bffffffffffffffffffffffffffffffffffffffffffffffffffffffff1916827bffffffffffffffffffffffffffffffffffffffffffffffffffffffff191614806104ed57507f5b5e139f000000000000000000000000000000000000000000000000000000007bffffffffffffffffffffffffffffffffffffffffffffffffffffffff1916827bffffffffffffffffffffffffffffffffffffffffffffffffffffffff1916145b806104fd57506104fc82610f01565b5b9050919050565b606060008054610513906126c4565b80601f016020809104026020016040519081016040528092919081815260200182805461053f906126c4565b801561058c5780601f106105615761010080835404028352916020019161058c565b820191906000526020600020905b81548152906001019060200180831161056f57829003601f168201915b5050505050905090565b60006105a182610f6b565b6004600083815260200190815260200160002060009054906101000a900473ffffffffffffffffffffffffffffffffffffffff169050919050565b60006105e782610955565b90508073ffffffffffffffffffffffffffffffffffffffff168373ffffffffffffffffffffffffffffffffffffffff1603610657576040517f08c379a000000000000000000000000000000000000000000000000000000000815260040161064e90612767565b60405180910390fd5b8073ffffffffffffffffffffffffffffffffffffffff16610676610fb6565b73ffffffffffffffffffffffffffffffffffffffff1614806106a557506106a48161069f610fb6565b610e3a565b5b6106e4576040517f08c379a00000000000000000000000000000000000000000000000000000000081526004016106db906127f9565b60405180910390fd5b6106ee8383610fbe565b505050565b7f000000000000000000000000000000000000000000000000000000000000000073ffffffffffffffffffffffffffffffffffffffff163373ffffffffffffffffffffffffffffffffffffffff16146107a557337f00000000000000000000000000000000000000000000000000000000000000006040517f1cf993f400000000000000000000000000000000000000000000000000000000815260040161079c929190612819565b60405180910390fd5b6107af8282611077565b5050565b6107c46107be610fb6565b826111c3565b610803576040517f08c379a00000000000000000000000000000000000000000000000000000000081526004016107fa906128b4565b60405180910390fd5b61080e838383611258565b505050565b3373ffffffffffffffffffffffffffffffffffffffff16600a60009054906101000a900473ffffffffffffffffffffffffffffffffffffffff1673ffffffffffffffffffffffffffffffffffffffff161461086d57600080fd5b6000600a60009054906101000a900473ffffffffffffffffffffffffffffffffffffffff1673ffffffffffffffffffffffffffffffffffffffff16476040516108b590612905565b60006040518083038185875af1925050503d80600081146108f2576040519150601f19603f3d011682016040523d82523d6000602084013e6108f7565b606091505b5050905080610932576040517f46d9644100000000000000000000000000000000000000000000000000000000815260040160405180910390fd5b50565b61095083838360405180602001604052806000815250610b3a565b505050565b60008061096183611551565b9050600073ffffffffffffffffffffffffffffffffffffffff168173ffffffffffffffffffffffffffffffffffffffff16036109d2576040517f08c379a00000000000000000000000000000000000000000000000000000000081526004016109c990612966565b60405180910390fd5b80915050919050565b60008073ffffffffffffffffffffffffffffffffffffffff168273ffffffffffffffffffffffffffffffffffffffff1603610a4b576040517f08c379a0000000000000000000000000000000000000000000000000000000008152600401610a42906129f8565b60405180910390fd5b600360008373ffffffffffffffffffffffffffffffffffffffff1673ffffffffffffffffffffffffffffffffffffffff168152602001908152602001600020549050919050565b606060018054610aa1906126c4565b80601f0160208091040260200160405190810160405280929190818152602001828054610acd906126c4565b8015610b1a5780601f10610aef57610100808354040283529160200191610b1a565b820191906000526020600020905b815481529060010190602001808311610afd57829003601f168201915b5050505050905090565b610b36610b2f610fb6565b838361158e565b5050565b610b4b610b45610fb6565b836111c3565b610b8a576040517f08c379a0000000000000000000000000000000000000000000000000000000008152600401610b81906128b4565b60405180910390fd5b610b96848484846116fa565b50505050565b6060610ba782610f6b565b6000600660008481526020019081526020016000208054610bc7906126c4565b80601f0160208091040260200160405190810160405280929190818152602001828054610bf3906126c4565b8015610c405780601f10610c1557610100808354040283529160200191610c40565b820191906000526020600020905b815481529060010190602001808311610c2357829003601f168201915b505050505090506000610c51611756565b90506000815103610c66578192505050610ca9565b600082511115610c9b578082604051602001610c83929190612a54565b60405160208183030381529060405292505050610ca9565b610ca48461176d565b925050505b919050565b60007f0000000000000000000000000000000000000000000000000000000000000000341015610cdd57600080fd5b7f000000000000000000000000000000000000000000000000000000000000000073ffffffffffffffffffffffffffffffffffffffff16635d3b1d307f00000000000000000000000000000000000000000000000000000000000000007f000000000000000000000000000000000000000000000000000000000000000060037f000000000000000000000000000000000000000000000000000000000000000060016040518663ffffffff1660e01b8152600401610da0959493929190612af0565b6020604051808303816000875af1158015610dbf573d6000803e3d6000fd5b505050506040513d601f19601f82011682018060405250810190610de39190612b58565b9050336007600083815260200190815260200160002060006101000a81548173ffffffffffffffffffffffffffffffffffffffff021916908373ffffffffffffffffffffffffffffffffffffffff16021790555090565b6000600560008473ffffffffffffffffffffffffffffffffffffffff1673ffffffffffffffffffffffffffffffffffffffff16815260200190815260200160002060008373ffffffffffffffffffffffffffffffffffffffff1673ffffffffffffffffffffffffffffffffffffffff16815260200190815260200160002060009054906101000a900460ff16905092915050565b60076020528060005260406000206000915054906101000a900473ffffffffffffffffffffffffffffffffffffffff1681565b60007f01ffc9a7000000000000000000000000000000000000000000000000000000007bffffffffffffffffffffffffffffffffffffffffffffffffffffffff1916827bffffffffffffffffffffffffffffffffffffffffffffffffffffffff1916149050919050565b610f74816117d5565b610fb3576040517f08c379a0000000000000000000000000000000000000000000000000000000008152600401610faa90612966565b60405180910390fd5b50565b600033905090565b816004600083815260200190815260200160002060006101000a81548173ffffffffffffffffffffffffffffffffffffffff021916908373ffffffffffffffffffffffffffffffffffffffff160217905550808273ffffffffffffffffffffffffffffffffffffffff1661103183610955565b73ffffffffffffffffffffffffffffffffffffffff167f8c5be1e5ebec7d5bd14f71427d1e84f3dd0314c0f7b2291e5b200ac8c7c3b92560405160405180910390a45050565b60006008549050600060648360008151811061109657611095612b85565b5b60200260200101516110a89190612be3565b905060006007600086815260200190815260200160002060009054906101000a900473ffffffffffffffffffffffffffffffffffffffff16905060006110ed83611816565b90506110f982856118dd565b6111bb84600983600481111561111257611111612c14565b5b8154811061112357611122612b85565b5b906000526020600020018054611138906126c4565b80601f0160208091040260200160405190810160405280929190818152602001828054611164906126c4565b80156111b15780601f10611186576101008083540402835291602001916111b1565b820191906000526020600020905b81548152906001019060200180831161119457829003601f168201915b50505050506118fb565b505050505050565b6000806111cf83610955565b90508073ffffffffffffffffffffffffffffffffffffffff168473ffffffffffffffffffffffffffffffffffffffff16148061121157506112108185610e3a565b5b8061124f57508373ffffffffffffffffffffffffffffffffffffffff1661123784610596565b73ffffffffffffffffffffffffffffffffffffffff16145b91505092915050565b8273ffffffffffffffffffffffffffffffffffffffff1661127882610955565b73ffffffffffffffffffffffffffffffffffffffff16146112ce576040517f08c379a00000000000000000000000000000000000000000000000000000000081526004016112c590612cb5565b60405180910390fd5b600073ffffffffffffffffffffffffffffffffffffffff168273ffffffffffffffffffffffffffffffffffffffff160361133d576040517f08c379a000000000000000000000000000000000000000000000000000000000815260040161133490612d47565b60405180910390fd5b61134a8383836001611968565b8273ffffffffffffffffffffffffffffffffffffffff1661136a82610955565b73ffffffffffffffffffffffffffffffffffffffff16146113c0576040517f08c379a00000000000000000000000000000000000000000000000000000000081526004016113b790612cb5565b60405180910390fd5b6004600082815260200190815260200160002060006101000a81549073ffffffffffffffffffffffffffffffffffffffff02191690556001600360008573ffffffffffffffffffffffffffffffffffffffff1673ffffffffffffffffffffffffffffffffffffffff168152602001908152602001600020600082825403925050819055506001600360008473ffffffffffffffffffffffffffffffffffffffff1673ffffffffffffffffffffffffffffffffffffffff16815260200190815260200160002060008282540192505081905550816002600083815260200190815260200160002060006101000a81548173ffffffffffffffffffffffffffffffffffffffff021916908373ffffffffffffffffffffffffffffffffffffffff160217905550808273ffffffffffffffffffffffffffffffffffffffff168473ffffffffffffffffffffffffffffffffffffffff167fddf252ad1be2c89b69c2b068fc378daa952ba7f163c4a11628f55a4df523b3ef60405160405180910390a461154c838383600161196e565b505050565b60006002600083815260200190815260200160002060009054906101000a900473ffffffffffffffffffffffffffffffffffffffff169050919050565b8173ffffffffffffffffffffffffffffffffffffffff168373ffffffffffffffffffffffffffffffffffffffff16036115fc576040517f08c379a00000000000000000000000000000000000000000000000000000000081526004016115f390612db3565b60405180910390fd5b80600560008573ffffffffffffffffffffffffffffffffffffffff1673ffffffffffffffffffffffffffffffffffffffff16815260200190815260200160002060008473ffffffffffffffffffffffffffffffffffffffff1673ffffffffffffffffffffffffffffffffffffffff16815260200190815260200160002060006101000a81548160ff0219169083151502179055508173ffffffffffffffffffffffffffffffffffffffff168373ffffffffffffffffffffffffffffffffffffffff167f17307eab39ab6107e8899845ad3d59bd9653f200f220920489ca2b5937696c31836040516116ed919061206b565b60405180910390a3505050565b611705848484611258565b61171184848484611974565b611750576040517f08c379a000000000000000000000000000000000000000000000000000000000815260040161174790612e45565b60405180910390fd5b50505050565b606060405180602001604052806000815250905090565b606061177882610f6b565b6000611782611756565b905060008151116117a257604051806020016040528060008152506117cd565b806117ac84611afb565b6040516020016117bd929190612a54565b6040516020818303038152906040525b915050919050565b60008073ffffffffffffffffffffffffffffffffffffffff166117f783611551565b73ffffffffffffffffffffffffffffffffffffffff1614159050919050565b6000602382101561182a57600090506118d8565b6023821015801561183b5750604682105b1561184957600190506118d8565b6046821015801561185a5750605582105b1561186857600290506118d8565b605582101580156118795750605f82105b1561188757600390506118d8565b605f82101580156118985750606482105b156118a657600490506118d8565b6040517fa4bda2b600000000000000000000000000000000000000000000000000000000815260040160405180910390fd5b919050565b6118f7828260405180602001604052806000815250611bc9565b5050565b611904826117d5565b611943576040517f08c379a000000000000000000000000000000000000000000000000000000000815260040161193a90612ed7565b60405180910390fd5b8060066000848152602001908152602001600020908161196391906130a3565b505050565b50505050565b50505050565b60006119958473ffffffffffffffffffffffffffffffffffffffff16611c24565b15611aee578373ffffffffffffffffffffffffffffffffffffffff1663150b7a026119be610fb6565b8786866040518563ffffffff1660e01b81526004016119e094939291906131ca565b6020604051808303816000875af1925050508015611a1c57506040513d601f19601f82011682018060405250810190611a19919061322b565b60015b611a9e573d8060008114611a4c576040519150601f19603f3d011682016040523d82523d6000602084013e611a51565b606091505b506000815103611a96576040517f08c379a0000000000000000000000000000000000000000000000000000000008152600401611a8d90612e45565b60405180910390fd5b805181602001fd5b63150b7a0260e01b7bffffffffffffffffffffffffffffffffffffffffffffffffffffffff1916817bffffffffffffffffffffffffffffffffffffffffffffffffffffffff191614915050611af3565b600190505b949350505050565b606060006001611b0a84611c47565b01905060008167ffffffffffffffff811115611b2957611b28612268565b5b6040519080825280601f01601f191660200182016040528015611b5b5781602001600182028036833780820191505090505b509050600082602001820190505b600115611bbe578080600190039150507f3031323334353637383961626364656600000000000000000000000000000000600a86061a8153600a8581611bb257611bb1612bb4565b5b04945060008503611b69575b819350505050919050565b611bd38383611d9a565b611be06000848484611974565b611c1f576040517f08c379a0000000000000000000000000000000000000000000000000000000008152600401611c1690612e45565b60405180910390fd5b505050565b6000808273ffffffffffffffffffffffffffffffffffffffff163b119050919050565b600080600090507a184f03e93ff9f4daa797ed6e38ed64bf6a1f0100000000000000008310611ca5577a184f03e93ff9f4daa797ed6e38ed64bf6a1f0100000000000000008381611c9b57611c9a612bb4565b5b0492506040810190505b6d04ee2d6d415b85acef81000000008310611ce2576d04ee2d6d415b85acef81000000008381611cd857611cd7612bb4565b5b0492506020810190505b662386f26fc100008310611d1157662386f26fc100008381611d0757611d06612bb4565b5b0492506010810190505b6305f5e1008310611d3a576305f5e1008381611d3057611d2f612bb4565b5b0492506008810190505b6127108310611d5f576127108381611d5557611d54612bb4565b5b0492506004810190505b60648310611d825760648381611d7857611d77612bb4565b5b0492506002810190505b600a8310611d91576001810190505b80915050919050565b600073ffffffffffffffffffffffffffffffffffffffff168273ffffffffffffffffffffffffffffffffffffffff1603611e09576040517f08c379a0000000000000000000000000000000000000000000000000000000008152600401611e00906132a4565b60405180910390fd5b611e12816117d5565b15611e52576040517f08c379a0000000000000000000000000000000000000000000000000000000008152600401611e4990613310565b60405180910390fd5b611e60600083836001611968565b611e69816117d5565b15611ea9576040517f08c379a0000000000000000000000000000000000000000000000000000000008152600401611ea090613310565b60405180910390fd5b6001600360008473ffffffffffffffffffffffffffffffffffffffff1673ffffffffffffffffffffffffffffffffffffffff16815260200190815260200160002060008282540192505081905550816002600083815260200190815260200160002060006101000a81548173ffffffffffffffffffffffffffffffffffffffff021916908373ffffffffffffffffffffffffffffffffffffffff160217905550808273ffffffffffffffffffffffffffffffffffffffff16600073ffffffffffffffffffffffffffffffffffffffff167fddf252ad1be2c89b69c2b068fc378daa952ba7f163c4a11628f55a4df523b3ef60405160405180910390a4611fb360008383600161196e565b5050565b6000604051905090565b600080fd5b600080fd5b60007fffffffff0000000000000000000000000000000000000000000000000000000082169050919050565b61200081611fcb565b811461200b57600080fd5b50565b60008135905061201d81611ff7565b92915050565b60006020828403121561203957612038611fc1565b5b60006120478482850161200e565b91505092915050565b60008115159050919050565b61206581612050565b82525050565b6000602082019050612080600083018461205c565b92915050565b600081519050919050565b600082825260208201905092915050565b60005b838110156120c05780820151818401526020810190506120a5565b60008484015250505050565b6000601f19601f8301169050919050565b60006120e882612086565b6120f28185612091565b93506121028185602086016120a2565b61210b816120cc565b840191505092915050565b6000602082019050818103600083015261213081846120dd565b905092915050565b6000819050919050565b61214b81612138565b811461215657600080fd5b50565b60008135905061216881612142565b92915050565b60006020828403121561218457612183611fc1565b5b600061219284828501612159565b91505092915050565b600073ffffffffffffffffffffffffffffffffffffffff82169050919050565b60006121c68261219b565b9050919050565b6121d6816121bb565b82525050565b60006020820190506121f160008301846121cd565b92915050565b612200816121bb565b811461220b57600080fd5b50565b60008135905061221d816121f7565b92915050565b6000806040838503121561223a57612239611fc1565b5b60006122488582860161220e565b925050602061225985828601612159565b9150509250929050565b600080fd5b7f4e487b7100000000000000000000000000000000000000000000000000000000600052604160045260246000fd5b6122a0826120cc565b810181811067ffffffffffffffff821117156122bf576122be612268565b5b80604052505050565b60006122d2611fb7565b90506122de8282612297565b919050565b600067ffffffffffffffff8211156122fe576122fd612268565b5b602082029050602081019050919050565b600080fd5b6000612327612322846122e3565b6122c8565b9050808382526020820190506020840283018581111561234a5761234961230f565b5b835b81811015612373578061235f8882612159565b84526020840193505060208101905061234c565b5050509392505050565b600082601f83011261239257612391612263565b5b81356123a2848260208601612314565b91505092915050565b600080604083850312156123c2576123c1611fc1565b5b60006123d085828601612159565b925050602083013567ffffffffffffffff8111156123f1576123f0611fc6565b5b6123fd8582860161237d565b9150509250929050565b6000806000606084860312156124205761241f611fc1565b5b600061242e8682870161220e565b935050602061243f8682870161220e565b925050604061245086828701612159565b9150509250925092565b6000602082840312156124705761246f611fc1565b5b600061247e8482850161220e565b91505092915050565b61249081612138565b82525050565b60006020820190506124ab6000830184612487565b92915050565b6124ba81612050565b81146124c557600080fd5b50565b6000813590506124d7816124b1565b92915050565b600080604083850312156124f4576124f3611fc1565b5b60006125028582860161220e565b9250506020612513858286016124c8565b9150509250929050565b600080fd5b600067ffffffffffffffff82111561253d5761253c612268565b5b612546826120cc565b9050602081019050919050565b82818337600083830152505050565b600061257561257084612522565b6122c8565b9050828152602081018484840111156125915761259061251d565b5b61259c848285612553565b509392505050565b600082601f8301126125b9576125b8612263565b5b81356125c9848260208601612562565b91505092915050565b600080600080608085870312156125ec576125eb611fc1565b5b60006125fa8782880161220e565b945050602061260b8782880161220e565b935050604061261c87828801612159565b925050606085013567ffffffffffffffff81111561263d5761263c611fc6565b5b612649878288016125a4565b91505092959194509250565b6000806040838503121561266c5761266b611fc1565b5b600061267a8582860161220e565b925050602061268b8582860161220e565b9150509250929050565b7f4e487b7100000000000000000000000000000000000000000000000000000000600052602260045260246000fd5b600060028204905060018216806126dc57607f821691505b6020821081036126ef576126ee612695565b5b50919050565b7f4552433732313a20617070726f76616c20746f2063757272656e74206f776e6560008201527f7200000000000000000000000000000000000000000000000000000000000000602082015250565b6000612751602183612091565b915061275c826126f5565b604082019050919050565b6000602082019050818103600083015261278081612744565b9050919050565b7f4552433732313a20617070726f76652063616c6c6572206973206e6f7420746f60008201527f6b656e206f776e6572206f7220617070726f76656420666f7220616c6c000000602082015250565b60006127e3603d83612091565b91506127ee82612787565b604082019050919050565b60006020820190508181036000830152612812816127d6565b9050919050565b600060408201905061282e60008301856121cd565b61283b60208301846121cd565b9392505050565b7f4552433732313a2063616c6c6572206973206e6f7420746f6b656e206f776e6560008201527f72206f7220617070726f76656400000000000000000000000000000000000000602082015250565b600061289e602d83612091565b91506128a982612842565b604082019050919050565b600060208201905081810360008301526128cd81612891565b9050919050565b600081905092915050565b50565b60006128ef6000836128d4565b91506128fa826128df565b600082019050919050565b6000612910826128e2565b9150819050919050565b7f4552433732313a20696e76616c696420746f6b656e2049440000000000000000600082015250565b6000612950601883612091565b915061295b8261291a565b602082019050919050565b6000602082019050818103600083015261297f81612943565b9050919050565b7f4552433732313a2061646472657373207a65726f206973206e6f74206120766160008201527f6c6964206f776e65720000000000000000000000000000000000000000000000602082015250565b60006129e2602983612091565b91506129ed82612986565b604082019050919050565b60006020820190508181036000830152612a11816129d5565b9050919050565b600081905092915050565b6000612a2e82612086565b612a388185612a18565b9350612a488185602086016120a2565b80840191505092915050565b6000612a608285612a23565b9150612a6c8284612a23565b91508190509392505050565b6000819050919050565b612a8b81612a78565b82525050565b600067ffffffffffffffff82169050919050565b612aae81612a91565b82525050565b600061ffff82169050919050565b612acb81612ab4565b82525050565b600063ffffffff82169050919050565b612aea81612ad1565b82525050565b600060a082019050612b056000830188612a82565b612b126020830187612aa5565b612b1f6040830186612ac2565b612b2c6060830185612ae1565b612b396080830184612ae1565b9695505050505050565b600081519050612b5281612142565b92915050565b600060208284031215612b6e57612b6d611fc1565b5b6000612b7c84828501612b43565b91505092915050565b7f4e487b7100000000000000000000000000000000000000000000000000000000600052603260045260246000fd5b7f4e487b7100000000000000000000000000000000000000000000000000000000600052601260045260246000fd5b6000612bee82612138565b9150612bf983612138565b925082612c0957612c08612bb4565b5b828206905092915050565b7f4e487b7100000000000000000000000000000000000000000000000000000000600052602160045260246000fd5b7f4552433732313a207472616e736665722066726f6d20696e636f72726563742060008201527f6f776e6572000000000000000000000000000000000000000000000000000000602082015250565b6000612c9f602583612091565b9150612caa82612c43565b604082019050919050565b60006020820190508181036000830152612cce81612c92565b9050919050565b7f4552433732313a207472616e7366657220746f20746865207a65726f2061646460008201527f7265737300000000000000000000000000000000000000000000000000000000602082015250565b6000612d31602483612091565b9150612d3c82612cd5565b604082019050919050565b60006020820190508181036000830152612d6081612d24565b9050919050565b7f4552433732313a20617070726f766520746f2063616c6c657200000000000000600082015250565b6000612d9d601983612091565b9150612da882612d67565b602082019050919050565b60006020820190508181036000830152612dcc81612d90565b9050919050565b7f4552433732313a207472616e7366657220746f206e6f6e20455243373231526560008201527f63656976657220696d706c656d656e7465720000000000000000000000000000602082015250565b6000612e2f603283612091565b9150612e3a82612dd3565b604082019050919050565b60006020820190508181036000830152612e5e81612e22565b9050919050565b7f45524337323155524953746f726167653a2055524920736574206f66206e6f6e60008201527f6578697374656e7420746f6b656e000000000000000000000000000000000000602082015250565b6000612ec1602e83612091565b9150612ecc82612e65565b604082019050919050565b60006020820190508181036000830152612ef081612eb4565b9050919050565b60008190508160005260206000209050919050565b60006020601f8301049050919050565b600082821b905092915050565b600060088302612f597fffffffffffffffffffffffffffffffffffffffffffffffffffffffffffffffff82612f1c565b612f638683612f1c565b95508019841693508086168417925050509392505050565b6000819050919050565b6000612fa0612f9b612f9684612138565b612f7b565b612138565b9050919050565b6000819050919050565b612fba83612f85565b612fce612fc682612fa7565b848454612f29565b825550505050565b600090565b612fe3612fd6565b612fee818484612fb1565b505050565b5b8181101561301257613007600082612fdb565b600181019050612ff4565b5050565b601f8211156130575761302881612ef7565b61303184612f0c565b81016020851015613040578190505b61305461304c85612f0c565b830182612ff3565b50505b505050565b600082821c905092915050565b600061307a6000198460080261305c565b1980831691505092915050565b60006130938383613069565b9150826002028217905092915050565b6130ac82612086565b67ffffffffffffffff8111156130c5576130c4612268565b5b6130cf82546126c4565b6130da828285613016565b600060209050601f83116001811461310d57600084156130fb578287015190505b6131058582613087565b86555061316d565b601f19841661311b86612ef7565b60005b828110156131435784890151825560018201915060208501945060208101905061311e565b86831015613160578489015161315c601f891682613069565b8355505b6001600288020188555050505b505050505050565b600081519050919050565b600082825260208201905092915050565b600061319c82613175565b6131a68185613180565b93506131b68185602086016120a2565b6131bf816120cc565b840191505092915050565b60006080820190506131df60008301876121cd565b6131ec60208301866121cd565b6131f96040830185612487565b818103606083015261320b8184613191565b905095945050505050565b60008151905061322581611ff7565b92915050565b60006020828403121561324157613240611fc1565b5b600061324f84828501613216565b91505092915050565b7f4552433732313a206d696e7420746f20746865207a65726f2061646472657373600082015250565b600061328e602083612091565b915061329982613258565b602082019050919050565b600060208201905081810360008301526132bd81613281565b9050919050565b7f4552433732313a20746f6b656e20616c7265616479206d696e74656400000000600082015250565b60006132fa601c83612091565b9150613305826132c4565b602082019050919050565b60006020820190508181036000830152613329816132ed565b905091905056fea2646970667358221220add2c59473454debd03bd2fa46cfb867e2f6828984811031bf5df4c508c8369064736f6c63430008110033",
  "devdoc": {
    "kind": "dev",
    "methods": {
      "approve(address,uint256)": {
        "details": "See {IERC721-approve}."
      },
      "balanceOf(address)": {
        "details": "See {IERC721-balanceOf}."
      },
      "getApproved(uint256)": {
        "details": "See {IERC721-getApproved}."
      },
      "isApprovedForAll(address,address)": {
        "details": "See {IERC721-isApprovedForAll}."
      },
      "name()": {
        "details": "See {IERC721Metadata-name}."
      },
      "ownerOf(uint256)": {
        "details": "See {IERC721-ownerOf}."
      },
      "safeTransferFrom(address,address,uint256)": {
        "details": "See {IERC721-safeTransferFrom}."
      },
      "safeTransferFrom(address,address,uint256,bytes)": {
        "details": "See {IERC721-safeTransferFrom}."
      },
      "setApprovalForAll(address,bool)": {
        "details": "See {IERC721-setApprovalForAll}."
      },
      "supportsInterface(bytes4)": {
        "details": "See {IERC165-supportsInterface}."
      },
      "symbol()": {
        "details": "See {IERC721Metadata-symbol}."
      },
      "tokenURI(uint256)": {
        "details": "See {IERC721Metadata-tokenURI}."
      },
      "transferFrom(address,address,uint256)": {
        "details": "See {IERC721-transferFrom}."
      }
    },
    "version": 1
  },
  "userdoc": {
    "kind": "user",
    "methods": {},
    "version": 1
  },
  "storageLayout": {
    "storage": [
      {
        "astId": 274,
        "contract": "contracts/NbaNftGenerator.sol:NbaNft",
        "label": "_name",
        "offset": 0,
        "slot": "0",
        "type": "t_string_storage"
      },
      {
        "astId": 276,
        "contract": "contracts/NbaNftGenerator.sol:NbaNft",
        "label": "_symbol",
        "offset": 0,
        "slot": "1",
        "type": "t_string_storage"
      },
      {
        "astId": 280,
        "contract": "contracts/NbaNftGenerator.sol:NbaNft",
        "label": "_owners",
        "offset": 0,
        "slot": "2",
        "type": "t_mapping(t_uint256,t_address)"
      },
      {
        "astId": 284,
        "contract": "contracts/NbaNftGenerator.sol:NbaNft",
        "label": "_balances",
        "offset": 0,
        "slot": "3",
        "type": "t_mapping(t_address,t_uint256)"
      },
      {
        "astId": 288,
        "contract": "contracts/NbaNftGenerator.sol:NbaNft",
        "label": "_tokenApprovals",
        "offset": 0,
        "slot": "4",
        "type": "t_mapping(t_uint256,t_address)"
      },
      {
        "astId": 294,
        "contract": "contracts/NbaNftGenerator.sol:NbaNft",
        "label": "_operatorApprovals",
        "offset": 0,
        "slot": "5",
        "type": "t_mapping(t_address,t_mapping(t_address,t_bool))"
      },
      {
        "astId": 1322,
        "contract": "contracts/NbaNftGenerator.sol:NbaNft",
        "label": "_tokenURIs",
        "offset": 0,
        "slot": "6",
        "type": "t_mapping(t_uint256,t_string_storage)"
      },
      {
        "astId": 2927,
        "contract": "contracts/NbaNftGenerator.sol:NbaNft",
        "label": "requestIdToOwner",
        "offset": 0,
        "slot": "7",
        "type": "t_mapping(t_uint256,t_address)"
      },
      {
        "astId": 2929,
        "contract": "contracts/NbaNftGenerator.sol:NbaNft",
        "label": "nftId",
        "offset": 0,
        "slot": "8",
        "type": "t_uint256"
      },
      {
        "astId": 2932,
        "contract": "contracts/NbaNftGenerator.sol:NbaNft",
        "label": "nftURIs",
        "offset": 0,
        "slot": "9",
        "type": "t_array(t_string_storage)dyn_storage"
      },
      {
        "astId": 2934,
        "contract": "contracts/NbaNftGenerator.sol:NbaNft",
        "label": "i_owner",
        "offset": 0,
        "slot": "10",
        "type": "t_address_payable"
      }
    ],
    "types": {
      "t_address": {
        "encoding": "inplace",
        "label": "address",
        "numberOfBytes": "20"
      },
      "t_address_payable": {
        "encoding": "inplace",
        "label": "address payable",
        "numberOfBytes": "20"
      },
      "t_array(t_string_storage)dyn_storage": {
        "base": "t_string_storage",
        "encoding": "dynamic_array",
        "label": "string[]",
        "numberOfBytes": "32"
      },
      "t_bool": {
        "encoding": "inplace",
        "label": "bool",
        "numberOfBytes": "1"
      },
      "t_mapping(t_address,t_bool)": {
        "encoding": "mapping",
        "key": "t_address",
        "label": "mapping(address => bool)",
        "numberOfBytes": "32",
        "value": "t_bool"
      },
      "t_mapping(t_address,t_mapping(t_address,t_bool))": {
        "encoding": "mapping",
        "key": "t_address",
        "label": "mapping(address => mapping(address => bool))",
        "numberOfBytes": "32",
        "value": "t_mapping(t_address,t_bool)"
      },
      "t_mapping(t_address,t_uint256)": {
        "encoding": "mapping",
        "key": "t_address",
        "label": "mapping(address => uint256)",
        "numberOfBytes": "32",
        "value": "t_uint256"
      },
      "t_mapping(t_uint256,t_address)": {
        "encoding": "mapping",
        "key": "t_uint256",
        "label": "mapping(uint256 => address)",
        "numberOfBytes": "32",
        "value": "t_address"
      },
      "t_mapping(t_uint256,t_string_storage)": {
        "encoding": "mapping",
        "key": "t_uint256",
        "label": "mapping(uint256 => string)",
        "numberOfBytes": "32",
        "value": "t_string_storage"
      },
      "t_string_storage": {
        "encoding": "bytes",
        "label": "string",
        "numberOfBytes": "32"
      },
      "t_uint256": {
        "encoding": "inplace",
        "label": "uint256",
        "numberOfBytes": "32"
      }
    }
  }
}